:100000000C942A000C943F000C943F000C943F0089
:100010000C943F000C943F000C943F000C943F0064
:100020000C943F000C943F000C943F000C943F0054
:100030000C943F000C943F000C943F000C943F0044
:100040000C943F000C943F000C943F000C943F0034
:100050000C943F0011241FBECFE5D4E0DEBFCDBF1E
:1000600010E0A0E6B0E0EEE8F1E002C005900D92ED
:10007000A236B107D9F70E949D000C94C5000C94DC
:10008000000083BD8FE085BD08B607FEFDCF15BC1F
:1000900080E888BF089590E002C0959587956A959D
:1000A000E2F780FD05C08DE40E94410081E00895E3
:1000B00080E00895809160002FEF829FC00111249D
:1000C00064E670E00E94B10063BD8FE685BD86B333
:1000D00066E00E944B008823A9F0809160008B3578
:1000E00018F4865F80936000809160002FEF829FFC
:1000F000C001112464E670E00E94B10063BDB69BAC
:10010000FECF089586B367E00E944B008823A1F0DC
:1001100080916000843118F08A5080936000809153
:1001200060002FEF829FC001112464E670E00E94FE
:10013000B10063BDB79BFECF089581B3836881BBD7
:1001400082B38C7782BB89EE0E94410082B38368C0
:1001500082BB89EE0E944100B099F2CF0E945A0002
:10016000FBCFAA1BBB1B51E107C0AA1FBB1FA617D1
:10017000B70710F0A61BB70B881F991F5A95A9F750
:0E01800080959095BC01CD010895F894FFCFB5
:02018E0032003D
:00000001FF
