:100000000C942A000C943F000C943F000C943F0089
:100010000C943F000C943F000C943F000C943F0064
:100020000C943F000C943F000C943F000C943F0054
:100030000C943F000C943F000C943F000C943F0044
:100040000C943F000C943F000C943F000C943F0034
:100050000C943F0011241FBECFE5D4E0DEBFCDBF1E
:1000600010E0A0E6B0E0E8EEF1E002C005900D92ED
:10007000A236B107D9F70E94C5000C94F2000C9487
:10008000000083BD8FE085BD08B607FEFDCF15BC1F
:1000900080E888BF089590E002C0959587956A959D
:1000A000E2F780FD05C08DE40E94410081E00895E3
:1000B00080E00895809160002FEF829FC00111249D
:1000C00064E670E00E94DE0063BD8FE685BD86B306
:1000D00066E00E944B008823A9F0809160008B3578
:1000E00018F4865F80936000809160002FEF829FFC
:1000F000C001112464E670E00E94DE0063BDB69B7F
:10010000FECF089586B367E00E944B008823A1F0DC
:1001100080916000843118F08A5080936000809153
:1001200060002FEF829FC001112464E670E00E94FE
:10013000DE0063BDB79BFECF08958AE090E09BBDD3
:100140008ABD1FBC8EE08EBD08B604FEFDCF1FBC6D
:100150001EBC88B7806188BF089581E19AE79BBD86
:100160008ABD1FBC8CE08EBD08B604FEFDCF1EBC50
:1001700088B7806188BF0895B29906C00E949D002B
:1001800095980E94AD00959A089581B38FEF81BB39
:1001900082B38C7582BB89EE0E94410082B3836A70
:1001A00082BB89EE0E944100B09903C00E945A00B0
:1001B000FBCFB299EDCF0E94BC00FBCFAA1BBB1BAB
:1001C00051E107C0AA1FBB1FA617B70710F0A61B57
:1001D000B70B881F991F5A95A9F780959095BC0178
:0801E000CD010895F894FFCF52
:0201E8003200E3
:00000001FF
